:020000040800F2
:1000000000140020850300087D590008F152000803
:1000100079590008B5170008F16F00089703000828
:10002000000000000000000000000000755B0008F8
:10003000B91700080000000081590008795B00082A
:10004000A1030008A1030008A1030008A103000800
:10005000A1030008A1030008A1030008A1030008F0
:10006000A1030008A1030008A1030008A1030008E0
:10007000A1030008A1030008A1030008A1030008D0
:10008000A1030008A1030008A1030008A1030008C0
:10009000A1030008A1030008A1030008A1030008B0
:1000A000A1030008A1030008A1030008A1030008A0
:1000B00000000000A1030008A1030008A10300083C
:1000C000A1030008A1030008A1030008A103000880
:1000D000A1030008A1030008A1030008A103000870
:1000E000A1030008A1030008A1030008A103000860
:1000F000A1030008A1030008A1030008A103000850
:10010000A1030008A1030008A1030008A10300083F
:10011000A1030008A1030008A1030008A10300082F
:10012000A1030008A1030008A1030008A10300081F
:10013000A1030008A1030008A1030008A10300080F
:10014000A1030008DD5B0008A1030008A10300086B
:10015000A1030008A1030008A1030008A1030008EF
:10016000A1030008A1030008A1030008A1030008DF
:10017000A1030008A1030008A1030008A1030008CF
:10018000A1030008A1030008A1030008A1030008BF
:10019000A1030008A1030008A1030008A1030008AF
:1001A000A1030008A1030008A1030008A10300089F
:1001B000A103000800000000A1030008A10300083B
:1001C000A103000800000000A1030008A10300082B
:1001D000A1030008A1030008A1030008A10300086F
:1001E000A1030008A1030008A1030008A10300085F
:1001F0000000000000000000A1030008A1030008A7
:10020000A1030008A1030008A1030008A10300083E
:10021000A1030008A1030008A1030008A10300082E
:10022000A1030008A1030008A1030008A10300081E
:10023000A1030008A103000800F002F800F092F802
:100240000AA090E8000C82448344AAF10107DA4531
:1002500001D100F087F8AFF2090EBAE80F0013F0F1
:10026000010F18BFFB1A43F0010318477880000004
:1002700098800000103A24BF78C878C1FAD8520795
:1002800024BF30C830C144BF04680C607047000010
:100290000023002400250026103A28BF78C1FBD88F
:1002A000520728BF30C148BF0B6070476E2900F06D
:1002B0006383702900F0B386662907F0DF8665291D
:1002C00007F0DC86672907F0D986612907F0D88610
:1002D00003681B0A28BF41F08001692900F01481DE
:1002E000642900F01181752900F00E816F2900F05A
:1002F0004186782900F07F86E92900F0DB85E42932
:1003000000F0D885F52900F0D585EF2900F03E866C
:10031000F82900F07E860368DB0928BF41F08001E0
:10032000632901F09980732901F09E80E32901F08F
:10033000A980F32901F0AE80002070471FB507F0B7
:1003400090FE00F077FE04000020002107F0FCFD85
:10035000401C60600020002107F0E0FDE0601FBD50
:1003600010B510BD01F034F91146FFF7E7FF06F0B4
:1003700041FE01F05BF903B4FFF7F2FF03BC01F0AB
:100380009DF900000A4880470A480047FEE7FEE75B
:10039000FEE7FEE7FEE7FEE7FEE7FEE7FEE7FEE735
:1003A000FEE7000004480549054A064B7047000077
:1003B0007D5B000839020008000E002000140020B8
:1003C000001000200010002053EA020C00F06980A9
:1003D0002DE9F04B4FF00006002B1FBFB3FA83F559
:1003E00003FA05F424FA05F65E4012BF1643B2FA8A
:1003F00082F502FA05F4C5F120051EBF22FA05FCBC
:1004000044EA0C04203556EA044C4FEA144418BF61
:10041000641C4FF000084FF00009904271EB030C90
:1004200039D3002919BFB1FA81F701FA07F6B0FAFA
:1004300080F700FA07F6C7F120071EBF20FA07FC75
:1004400046EA0C062037B6FBF4FCA7EB0507103F85
:1004500007F01F0BCBF120062CFA06F60CFA0BFB6B
:1004600044BFB3460026202FA4BF5E464FF0000BCA
:100470005BEA060C08BF4FF0010B19EB0B0948EBC8
:100480000608ABFB027C06FB02CC0BFB03CCC01BBB
:1004900071EB0C01C1E70B46024641464846BDE8F8
:1004A000F08B13B5084318BF4FF0FF300146AFF390
:1004B0000080BDE81C4070471CB50C46064B7B44D1
:1004C00069460090204600F07EFC04460020694604
:1004D00000F08CFC20461CBD2B0900000FB41CB59D
:1004E000084B06AA7B4469460090059800F06BFC17
:1004F00004460020694600F079FC20461CBC5DF8EB
:1005000014FB0000050900002DE9F0410646002417
:1005100010687529314616A510D000F099F9002809
:1005200002DA404213A507E031688A0701D512A517
:1005300002E0490704D511A5012401E000F091F97A
:1005400000210A2206F1240709E0B0FBF2FCB0FB0F
:10055000F2F302FB1C00303078541846491C002886
:10056000F3D123462A463046BDE8F04100F0ABB94E
:10057000000000002D0000002B0000002000000003
:100580002DE9F05F894604464FF0000ADFF874B1A8
:10059000FB44C0F820A02046E1688847002874D0BA
:1005A000252806D0D4E901219047206A401C20620A
:1005B000F1E700265F462046E16888472028054687
:1005C00007DB312D05D2781910F8200C08B106434D
:1005D000F1E7B00701D526F00406C4F81CA00027F7
:1005E000C4F818A02A2D09D0284607F08FFC38B38C
:1005F00004EB8708303DC8F8185019E059F8041B7F
:10060000204604EB87029161E1688847012F054687
:1006100018D1E069002820DA26F020061DE0D8F87D
:10062000180000EB800005EB40003038C8F81800D7
:100630002046E1688847054607F068FC0028EED1AF
:10064000012F0AD02E2D08D12046E16888477F1C53
:100650000546022F46F02006C4DBA069002803DA15
:10066000404246F00106A061F00701D026F01006D6
:100670006C2D0BD0682D09D04C2D39D06A2D35D07A
:10068000742D35D07A2D33D016E038E0E1682F464E
:1006900020468847B842054609D16C2F26D04FF432
:1006A0008060E168064320468847054604E06C2FD9
:1006B0001AD04FF4807006430DB3A5F141001928FC
:1006C00002D8203546F400664A4629462046266070
:1006D0004E46FFF7EBFD80B101280BD0F61D26F04A
:1006E000070000F1080956E74020E4E78020D8E73A
:1006F0000020D6E706F104094DE7284652E7206AB4
:10070000BDE8F09FF07A000030B505460B462A465A
:1007100013F8014B12F8010B08B1A042F8D01CB13C
:10072000002802D06D1CF1E7284630BD10B5431CEF
:1007300002E010F8011B71B18107FAD14FF00132CC
:1007400002C88C1A8C4314EAC211F9D0C01A0A06E6
:1007500003D0C01E10BDC01A10BD0A0401D0801EF7
:1007600010BD0902FCD0401E10BD4FF0000204294C
:10077000C0F0128010F0030C00F01B80CCF1040CD0
:10078000BCF1020F18BF00F8012BA8BF20F8022B04
:10079000A1EB0C0100F00DB85FEAC17C24BF00F8AA
:1007A000012B00F8012B48BF00F8012B70474FF0D8
:1007B000000200B5134694469646203922BFA0E8B1
:1007C0000C50A0E80C50B1F12001BFF4F7AF0907BD
:1007D00028BFA0E80C5048BF0CC05DF804EB8900AE
:1007E00028BF40F8042B08BF704748BF20F8022BF1
:1007F00011F0804F18BF00F8012B70477047704709
:10080000704770B5044685690068C10601D5302679
:1008100000E02026C00707D070BDD4E90121304692
:100820009047206A401C20626D1EF6D570BD70B5E1
:10083000044685690078C00707D170BDD4E901215D
:1008400020209047206A401C20626D1EF6D570BDA6
:1008500009684A0501D540B27047C905FCD500B208
:10086000704709684A0501D5C0B27047C905FCD573
:1008700080B2704770B50C460546012A05D028782D
:10088000800600D5EA69002302E0012305E05B1C35
:10089000934202D2E05C0028F9D1A869E618C01A98
:1008A000A861286A184428622846FFF7AAFF04E0D6
:1008B000D5E9012114F8010B9047B442F8D328463A
:1008C000FFF7B5FF70BD2DE9F0470D4699469246FA
:1008D000044600F124080168880604D5E06921F087
:1008E0001001216000E00120A84201DD471B00E06B
:1008F0000027A1697A1902EB0900081AA061207883
:10090000C00602D42046FFF77CFF002608E0D4E9A9
:1009100001211AF806009047206A401C761C2062CC
:100920004E45F4DB2078C0060AD52046FFF769FF64
:1009300006E0D4E9012130209047206A401C206263
:10094000381EA7F10107F4DC07E0D4E9012118F80B
:1009500005009047206A401C2062281EA5F1010571
:10096000F3DC2046FFF763FF2078000602D5022063
:10097000BDE8F0870120FBE711680268006A5305B3
:1009800001D508700AE0D30501D5088006E01306FA
:1009900003D5C217C1E9000200E0086001207047DA
:1009A0002DE9FF4F0C461E464FF0FF378BB0D2E9C2
:1009B0000001DDF860800A908A46C1F30A5505B946
:1009C0003D46002108464FF00000BAF1000F00F448
:1009D000400005DA00EB80004FF4400101EA5000CE
:1009E0004FEA9059B9F1010F00DDB9460A9850EA73
:1009F0004A000ED044F61050A5F2FF3545432F149F
:100A0000B8F1000F1ED07542291E1EDDC9F100028B
:100A10001CE0B8F1010F4FF0000001D0302103E0DD
:100A2000F24305E02154401CB042FBDB304600227B
:100A3000002121540B99C1F80880C1E900200FB0B2
:100A4000BDE8F08FBD1B6D1CDEE74A4600DA694247
:100A500006A800F023FD06AB93E8070003AB83E88C
:100A6000070050460A9906F071FE8DE80700A0F5D0
:100A700000501F3800900398002D0ADD42F21F013C
:100A80004A460844002303A90390684607F0DAF8B1
:100A900009E0A0F500504A461F38002303A903903F
:100AA000684607F0E4F88DE807000004000C03D066
:100AB0004FF0FF30410800E01046B8F1000F03D0BE
:100AC0000022009215461EE0751E05D400F0B6FA0D
:100AD000303262556D1EF9D5B3460122084302D06B
:100AE00000227F1C04E02078302801D100227F1EE4
:100AF000002A099784D01DE0112D07DA00F09EFA34
:100B0000303262556D1C50EA0102F5D1084302D023
:100B10000098C8B10EE00021681E05E0235C625C0D
:100B200063542254401E491C8142F7DBAB46A81B8C
:100B3000401E0990002004F80B000B98099AC0F899
:100B40000880C0E9002B7AE711264FF0000857E72C
:100B50002DE9F04F88460446D21D22F0070191B0DE
:100B6000D1E90001CDE90A0107F0B8F902460B9876
:100B7000C00F01D02D2007E02068810701D52B2070
:100B800002E0202101EAC000032A099001D0072ACF
:100B900005DB03464146204600F014FC0BE12078BB
:100BA000800601D5E06900E00620B8F1650F8146B6
:100BB00006D0B8F1660F18D0B8F1670F70D131E0E8
:100BC0000020B9F1110F009001DB112301E009F1C0
:100BD00001030AAA01A90CA8FFF7E2FEDDE90C70E7
:100BE000002609F10105834647E001204B460090AD
:100BF0004FF000470AAA01A90CA8FFF7D1FEDDE9D2
:100C00000DB00C995D46002610B909F101000D18D0
:100C1000B9EB050003D4C0F1FF3609F10105A5EBDE
:100C200009002BE0B9F1010F01DA4FF001090020B2
:100C3000B9F1110F0090484601DD112300E0034691
:100C40000AAA01A90CA8FFF7ABFEDDE90C704D461E
:100C500000268346207800070AD4AB4500DA5D46BB
:100C600001A8012D04DD411911F8011C302907D01C
:100C70004F4502DA17F1040F04DA012082460FE033
:100C80006D1EEEE7002F02DCED1B3E4403E0781CF6
:100C9000A84200DD7D1CB81B00F1010A4FF000479F
:100CA0002078000703D4AA4501DB4FF0FF3A00216A
:100CB000B7F1004F0DF143088DF8431024D0022006
:100CC0002B23002F01DA7F422D230A21021EA0F1DF
:100CD000010000DC5FB197FBF1FC97FBF1F201FB37
:100CE0001C7C17460CF1300C08F801CDEEE7A8F19A
:100CF000010003702188090501D5452100E0652127
:100D0000A0F1010800F8011C09980FA9A1EB080740
:100D1000FF1D00B10120411901EBEA70A1693844BF
:100D2000081A401EA0612078C00602D42046FFF7B2
:100D300068FD099828B1D4E901219047206A401C38
:100D400020622078C00622D52046FFF75AFD1EE01B
:100D5000002E04DBB34502DD01A8805D00E03020F9
:100D6000D4E901219047206A401C2062761CAAF138
:100D700001005FEA000A0AD100F05CF9C06801686E
:100D8000405CD4E901219047206A401C2062281E63
:100D9000A5F10105DCDC07E0D4E9012118F8010B1D
:100DA0009047206A401C2062381EA7F10107F3DC3F
:100DB0002046FFF73CFD032011B041E601694A1CC3
:100DC00002610878704700B58FB0CDE9013100218C
:100DD000059105497944CDE9031011466846FFF7AE
:100DE000CFFB0FB000BD0000E5FFFFFF0A6802F86F
:100DF000010B0A60704700002DE9FF5F15468A4627
:100E00000446DFF8AC80F8440027D8E900103E46DD
:100E1000CDE9001010E03AF816106A4602A800F07A
:100E2000AFFB411C07D02178890603D5E269391848
:100E300091420DD80744761C2078800602D5E069DF
:100E4000B84205DDAE42E6DB3AF816000028E2D1F2
:100E5000A069C01BA0612046FFF7D3FCD8E90010B1
:100E6000CDE90010002017E03AF818106A4602A8F1
:100E700000F086FBB0F1FF3F81460BD000250DF15D
:100E8000080B05E0D4E901211BF8050090476D1C13
:100E90004D45F7D308F10100B0428046E4DB206AFB
:100EA000384420622046FFF7C2FCBDE8FF9F0000E7
:100EB0008E7200002DE9F0418046D21D22F007021B
:100EC0000025D2E90002F52915A614D0011E72F101
:100ED000000106DA0023D0EB030063EB020211A647
:100EE00008E0D8F800108B0701D50FA602E04907EB
:100EF00001D50EA601251146002408F1240704E0BF
:100F000000F09CF830323A55641C50EA0102F7D1E7
:100F10002B46324621464046BDE8F041FFF7D3BCA0
:100F2000000000002D0000002B0000002000000049
:100F300030B4002100F1240408E002F00705D208D3
:100F4000303542EA4372DB086554491C52EA030516
:100F5000F3D10468002310A2250708D504F020046B
:100F60000C4304D0C46901230CA2641EC46130BCCC
:100F7000FFF7A9BC10B5044621461068FFF771FCC5
:100F800002462046BDE810400023D1E7D21D22F0E2
:100F90000701D1E90023CBE700000000300000008A
:100FA000F0B40D460188090502D5214C7C4402E0CD
:100FB0001F4C7C440E34002100F1240608E002F0AE
:100FC0000F071209E75D42EA03721B097754491CB7
:100FD00052EA0307F3D102780023120704D5702DDB
:100FE00006D009B1022311342246F0BCFFF76BBCD6
:100FF00001231034F8E770B504460D462146106809
:10100000FFF72FFC024629462046BDE8704000232A
:10101000C6E7D21D22F00703D3E90023C0E7036827
:10102000126843F0200303600823C3610023B7E77D
:10103000F0700000004870473000002030B5B0F17B
:101040000A0271F100034FEA900E4EEA817EB0EB86
:101050000E0061EB91014FEA101E4EEA017E10EB8B
:101060000E0041EB11114FEA102E4EEA016E10EB0B
:101070000E0041EB11214FEA104E4EEA014E10EBEB
:101080000E0041EB1141401841F100014FEAD00040
:1010900040EA41704FEAD1014FEA810444EA90747A
:1010A00010EB800544EB01046D1944EB0404521B62
:1010B000A3414FF0000348BF0A3200D530BD401CA9
:1010C00041F1000130BD00002DE9F04F04460D460E
:1010D000D21D22F0070089B0D0E900974846394672
:1010E00006F0FCFE0246F80F01D02D2307E0206831
:1010F000810701D52B2302E0202101EAC0038DF8EE
:1011000020300BB1012000E00020032A824601D0EC
:10111000072A04DB2946204600F054F93FE12078F5
:10112000800601D40D2500E0E569C7F30A560D2DB0
:1011300049DA00214FEA175B08464FF00000002F04
:1011400000F4400007DA00EB80004FF4400100EBB0
:10115000D07001EA60008115012901DD4FF0FF31F7
:1011600000224FEA850CBCF1180F06D31346ACF1F0
:1011700018004FF08052C24003E04FF4801323FA6E
:101180000CF30CF10C0CBCF1200F04D3ACF1200CCF
:1011900009FA0CF001E007FA0CF000294FF00048C2
:1011A00001DD18B90FE00ED140450CD319EB02094F
:1011B0005F4121B9404502D19F4329EA0209BBEBB7
:1011C000175F00D0761C2088000502D57B48784444
:1011D00002E07A487844193808AA302302F80A3025
:1011E000037C0AF10101002E0AF1020A53546A46F7
:1011F00002DC4FF0300101E04FF031014FF0010807
:101200008DF8001002D0A6F2FF3603E059EA47013C
:1012100000D06B4E002D02DC2178090704D54FF079
:1012200002082E218DF80110C44600210BE0C7F3FF
:1012300003433F01C35C491C6D1E02F808300529B9
:1012400008F1010801DA002DF1DC00210CE000EBCF
:101250001973491C1B786D1E082902F808304FEAE3
:10126000091908F1010801DA002DF0DC21688B066C
:1012700002D516E0A8F10108E04505DD02EB080300
:1012800013F8013C302BF5D0B8F1000F09DD02EB6B
:10129000080313F8013C2E2B03D1090701D4A8F150
:1012A0000108002D05DD3E2102F808106D1E08F131
:1012B0000108407C002E02F8080008F1010804DA59
:1012C0002D20764202F8080002E02B2002F80800E8
:1012D0000A214FF47A70864208F101080BDB96FB75
:1012E000F0F3303302F8083096FBF0F308F1010810
:1012F00000FB136601E0642E0CDB642096FBF0F328
:10130000303302F8083096FBF0F308F1010800FBD7
:10131000136601E00A2E06DB96FBF1F0303002F88E
:10132000080008F1010896FBF1F001FB1060303075
:1013300002F80800A16908F1010808EB050202EBB8
:101340000A00081AA0612078C00602D42046FFF7E0
:1013500058FA216A08AE01EB0A00206204E0D4E9E1
:10136000012116F8010B9047BAF1010AF7D2207853
:10137000C00602D52046FFF744FA6E4609E016F88B
:10138000010B3E280FD0D4E901219047206A401C70
:101390002062B8F10108F2D22046FFF748FA09B0FE
:1013A0000320BDE8F08F206A2844206203E0D4E9DE
:1013B0000121302090476D1EEBD3F8E7096F000044
:1013C00002FCFFFF2DE9F0411F4604460326016899
:1013D000072A01F4006004DB08B116A505E016A594
:1013E00003E008B115A500E015A521F0100020606C
:1013F000A069C01EA0610FB1401EA0612046FFF78A
:1014000000FA4FB1D4E9012138469047206A401CC8
:101410002062C01C206206E0206AFAE7D4E90121BC
:1014200015F8010B9047761EF8D22046FFF7FFF91A
:10143000BDE8F0814E414E006E616E00494E46009F
:10144000696E660010B5436913B1AFF3008001E027
:10145000FFF710FA012010BD127800F124010A7084
:1014600000224A700122EDE711684FF0FF32E9E7F0
:1014700010B5436913B1AFF3008001E0FFF7BCFC86
:10148000012010BD128800F1240182840022C28450
:101490000122EDE711684FF0FF32E9E72DE9F0474F
:1014A000814616468AB0354878440DC88DE80D004F
:1014B00032487844801C03AC0DC884E80D0041F626
:1014C0009B300844372190FBF1F290FBF1F5A5F138
:1014D000800501FB12041B3C02D56442012000E0A0
:1014E0000020DFF898A080460027FA44AAF1BE0A3F
:1014F0000EE0E0070AD03246684607EB47010123B9
:101500000AEB810106F0B3FB8DE8070064107F1C35
:10151000002CEED1194F7F44AE3F19E0E80715D0FB
:1015200007EB04100DF1180A90E80E008AE80E008F
:10153000C068F04201D1981908903246012306A9EB
:1015400003A806F094FB03AB83E807006D10641C4E
:10155000002DE3D14FF0010332466946B8F1000F88
:1015600003A802D006F06EFB01E006F080FBC9E99B
:101570000001C9F808200AB0BDE8F087C06C00007F
:101580002DE9F04116460C46054600F047F8036881
:1015900093F80101012807D0FF2C12D8185D80B103
:1015A00001202C70BDE8F081D3F8070132462146B6
:1015B00003F20713C7182846BC46BDE8F0410023D4
:1015C00060474FF0FF30EDE7004870471000002003
:1015D0007546FFF7F9FFAE4605006946534620F011
:1015E0000700854618B020B5FEF7DCFEBDE82040B8
:1015F0004FF000064FF000074FF000084FF0000BCF
:10160000AC46ACE8C009ACE8C009ACE8C009ACE83D
:10161000C00921F007018D467047000010B5FFF7A3
:1016200009FD001D10BD00BF2169000010B5044672
:10163000AFF300802046BDE81040FEF79CBE0000DE
:1016400030B44FF0013C50F8042B51F8043BCCFA75
:1016500052F4D51A20D1FCB950F8042B51F8043BB0
:10166000CCFA52F4D51A17D1B4B950F8042B51F86A
:10167000043BCCFA52F4D51A0ED16CB950F8042BB5
:1016800051F8043BCCFA52F4D51A05D1002CDAD02B
:1016900030BC4FF00000704729BAB1FA81F111F067
:1016A0001801D1F120008440F2D1CA40CB4012F0A1
:1016B000FF0213F0FF0330BCD01A70470149182015
:1016C000ABBEFEE72600020070470000F0B583B015
:1016D00040F67C44E320C2F200048DF807000026A7
:1016E00064250DF10702204680210123ADF8046036
:1016F000009500F075FB0A2000F0D6F801AA2046FC
:1017000081210223009500F097FA0A2000F0CCF81E
:10171000BDF804000DF10B0200BA070CE5208DF8AE
:101720000B00204680210123ADF80860009500F0F1
:1017300057FB0A2000F0B8F802AA204681210223B4
:10174000009500F079FA0A2000F0AEF800EE107A69
:10175000BDF80800B8EE400A9FED121A00BA20EE5C
:10176000010A9FED112A000C20EE020A02EE100A77
:101770009FED0E3AB8EE422A30EE030A22EE011A2D
:101780009FED0B2A40F6744021EE021AB9EE082AAA
:10179000C2F2000031EE021A80ED000A80ED011A5B
:1017A00003B0F0BD0000803752B82F4366663BC2DD
:1017B0000000FA42FEE7000070470000EFF31080DF
:1017C00072B600BFFEE70000B0B5044600F094F921
:1017D000002C04BF0120B0BD054694F85400022837
:1017E0002ED12168486940F004004861052084F842
:1017F00054000869800408D400F07EF9401B0528D5
:1018000026D8216808698004F6D54869012240F08D
:1018100002004861042084F854004FF4FE40C86080
:1018200084F8542094F8500000064FF0000002D5D0
:10183000636F1A738864002184F84C10B0BD00BF38
:101840002020A0650120002184F84C10B0BD00BF0D
:10185000A06D40F01000A065032084F8540094F8B7
:10186000500000064FF0010044BF616F0873002173
:1018700084F84C10B0BD0000002804BF0120704760
:1018800090F8541002290BD1042180F854100068FC
:1018900042F204024169114341610020704700BFD8
:1018A0002021816501207047B0B5044600F024F97D
:1018B000054640F20000C2F200000078611C18BF2B
:1018C000044400BF00F018F9401BA042FAD3B0BD99
:1018D0002DE9F04F81B00D68002D00F003818046A6
:1018E00047F67F70C0F22F0000EA98200027009092
:1018F00000234FF0010E4FF0030AC4F20267404686
:101900000BE000BF4FF0030A0027C4F202670D6826
:10191000013335FA03F200F0E5800EFA03F415EA1C
:101920000409F4D0B84525D0D1F804C04CF0100417
:10193000122C55D16FF0030202EA53071C2202EA6F
:10194000830647440F223D6A02FA06F40A69A5435A
:1019500002F00F02B2402A433A6202685C00D1F8FA
:1019600004C00AFA04F5AA430CF0030505FA04F4CE
:1019700022433FE0386848F29C124D68C0F60002EE
:10198000A04302EBC30405F001059D40D4F804B068
:10199000054352F833006FF0030202EA5B041C2295
:1019A0003D60051902EA8B042F6A0F2202FA04F641
:1019B0000B22B74302FA04F637432F6207684FEA57
:1019C0004B060AFA06F50222AF4302FA06F637433F
:1019D0000760D1F804C0BCF1120F10D938E000BF85
:1019E00002685C000AFA04F5AA430CF0030505FA44
:1019F00004F422439B460260BCF1120F28D80EFA71
:101A00000CF212F0061F1FD04FEA4B050324826828
:101A100004FA05FACC6822EA0A02AC40224382604A
:101A200042680EFA0BF4A2434FEA1C1404FA0BF4BA
:101A30002243BCF1030F42603FF464AF6FEA0A0433
:101A40004FF0030A09E000BFBCF1030F3FF45CAFA5
:101A50004FEA4B050AFA05F2D443C2688E68224069
:101A600006FA05F422435FEACC07C2607FF54CAF6B
:101A700042F2000423F00302C4F202641827224455
:101A800007EAC307166E0F25BD40AE43009D05FA59
:101A900007F73743176622684F6842EA0906FD02D6
:101AA00058BF22EA090626606268BD0242EA0906BA
:101AB00058BF22EA09066660D4F88420BD0342EAD2
:101AC000090658BF22EA0906C4F88460D4F88020C9
:101AD000FF0342EA090658BF22EA0906C4F88060FB
:101AE00012E700BF01B0BDE8F08F00001823002A04
:101AF00008BF2823C150704740F6F850C2F20000DA
:101B00000068704790F84120202A03D190F84020C7
:101B1000012A01D102207047242280F84120026866
:101B2000136823F001031360136823F480531360D8
:101B3000136819431160116841F0010111602021FF
:101B400080F84110002180F84010084670470000DE
:101B500090F84120202A03D190F84020012A01D199
:101B600002207047242280F841200268136823F085
:101B700001031360136823F4706343EA01211160C9
:101B8000116841F001011160202180F8411000210D
:101B900080F8401008467047002804BF01207047B5
:101BA00010B5044690F8410028B9002084F84000A0
:101BB000204600F0E7F9242084F8410094E8091059
:101BC000E2680168012A21F00101016023F07061DF
:101BD0000161816821F40041816003D14CF400412E
:101BE000816007E04CF40441022A816004BF4FF495
:101BF00000614160416804F1100341F0007141F45B
:101C000000414160C16821F40041C1600ECB114325
:101C100041EA0321E269C160216A11430160016860
:101C200041F00101016000202021606484F841102E
:101C3000206384F8420010BD2DE9F04782B00446CD
:101C400090F84100202803D194F84000012803D1E6
:101C5000022002B0BDE8F08701201F4615468846E5
:101C600084F84000FFF748FF216806468A6912049D
:101C700025D4222084F84100102084F8420000205E
:101C80006064656267856063608D40F2000AB0F54C
:101C9000807F49F60000CFF60040C0F2FF1A25D33E
:101CA00051F8043F42466FF39F22034013430AF565
:101CB0001057FF2228E000BF88690004D9D5FFF73C
:101CC0001BFF801B21681A28F6D388690004F3D50E
:101CD000606C40F020006064202084F84100002007
:101CE00084F8420084F8400062E000BF628D434601
:101CF0006FF39F23D7B251F8045F43EA074305EA25
:101D000000073B430AF592373B430B602285618D08
:101D10000A9F002946D06FF39F284FF0FF0900F576
:101D200080650FE0618D20682185C9B250F8042FCD
:101D300048EA01412A4011434FF00072114301600B
:101D4000608D78B320463946324603F007FC78BBF5
:101D50002068616A406A0870606A218D013001392B
:101D600060622185608D0904A0F101006085608DAD
:101D7000E6D10028E4D02046802100223B46009690
:101D800003F06CFBA0B9608DB0F5807FCAD32068EA
:101D9000A4F8289050F8041F5246294041EA08014F
:101DA000CCE700BF20463946324603F041FC18B16B
:101DB000012002B0BDE8F08720682021C16142689F
:101DC0004EF60003CFF600631A404260002084F80C
:101DD000411084F8420084F8400002B0BDE8F0876A
:101DE0002DE9F04782B0044690F84100202803D145
:101DF00094F84000012803D1022002B0BDE8F0872A
:101E000001201F461546884684F84000FFF774FEFF
:101E1000216806468A69120425D4212084F84100ED
:101E2000102084F84200002060646562678560636A
:101E3000608D40F2000AB0F5807F49F60000CFF6D1
:101E40000040C0F2FF1A25D351F8043F42466FF319
:101E50009F22034013430AF50057FF2228E000BFEA
:101E600088690004D9D5FFF747FE801B21681A282E
:101E7000F6D388690004F3D5606C40F020006064FC
:101E8000202084F84100002084F8420084F84000BB
:101E900060E000BF628D43466FF39F23D7B251F8D5
:101EA000045F43EA074305EA00073B430AF590371E
:101EB0003B430B602285618D0A9F002944D06FF35C
:101EC0009F284FF0FF0900F580650FE0618D2068C5
:101ED0002185C9B250F8042F48EA01412A40114334
:101EE0004FF0007211430160608D68B3204639469F
:101EF000324603F0DDFB68BB606A226810F8011B04
:101F000091626062608D01386085208D411E21855F
:101F1000608D0904E8D10028E6D020468021002207
:101F20003B46009603F09AFAA0B9608DB0F5807F29
:101F3000CCD32068A4F8289050F8041F52462940BA
:101F400041EA0801CEE700BF20463946324603F099
:101F50006FFB18B1012002B0BDE8F0872068202196
:101F6000C16142684EF60003CFF600631A4042603A
:101F7000002084F8411084F8420084F8400002B048
:101F8000BDE8F087B0B5BAB0044602A80025083015
:101F9000C0213995CDE93755CDE93555FEF707FC18
:101FA000206845F20041C4F20001884202D03AB0F4
:101FB000B0BD00BF4020029002A803951C9501F01F
:101FC0005BF9002818BFFFF7F9FB40F68C44C4F218
:101FD0000264206835A940F002002060206800F00B
:101FE000020001900198C020359012203690002008
:101FF000CDE937000420399040F20040C4F20220BD
:10200000FFF766FC206940F400102061206900F4AD
:102010000010019001983AB0B0BD000040F20041BC
:10202000C4F203010A68D2071CBF012070470A6886
:1020300022F00402104308600020704740F2004183
:10204000C4F20301086840F0010200200A607047F2
:1020500040F2000040F6F851C2F20000C2F2000166
:1020600000780A68104408607047000080B542F2AA
:102070000000C4F20200016841F480710160032095
:1020800000F094F801F01AFE40F62041C4F202611B
:10209000096848F2841201F00F01C0F60002515C99
:1020A000C84040F20801C2F2000108600F2000F0B1
:1020B00009F800281CBF012080BD00F02BF800208B
:1020C00080BD000070B540F20006C2F20006317813
:1020D000002904BF012070BD044640F20800C2F28E
:1020E00000004FF47A720068B2FBF1F1B0FBF1F03E
:1020F00002F032FC0F2C4FF0010508D838B94FF030
:10210000FF3021460022002500F024F874602846A4
:1021100070BD000081B040F69440C4F202600168D6
:1021200041F004010160006800F004000090009894
:1021300001B07047002848BF704700F01F0101221E
:1021400002FA01F14EF200124009CEF2000242F80A
:102150002010704710B54EF60C5CCEF2000CDCF887
:102160000030C3F3022E8EF00704042C28BF042491
:10217000BEF103034FF0FF3E38BF00230EFA04F414
:10218000A14399400EFA03F39A4300F00F03043B76
:102190001143634409010C3300F16042B0F1FF3F89
:1021A000C8BF02F56443197010BD00004EF60C5113
:1021B000CEF200010A684FF6FF031A4060F30A22CC
:1021C00042F0806040F0FD700860704780B540F6D6
:1021D0000C0CC4F2026CDCF8301001F44031814286
:1021E0000CD1B0F1011FC0F07F80DCF8000040F49A
:1021F0008020CCF80000002080BD00BFDCF800107B
:10220000B0F5803F21F4E02141EA000140F20800EE
:1022100088BF41F48021CCF80010C2F200000068B1
:1022200041F25971CDF2B711A0FB01014FEA913E85
:10223000734600BFDCF80010B3F1FF3218BF012273
:10224000581C22D011F400401FD1DCF80010002BE4
:102250001A4618BF012218D011F4004015D1DCF83D
:1022600000105A1E18BF0122012B0ED011F400409D
:102270000BD1DCF800109A1E18BF0122022B04D0EB
:1022800011F40040A3F10403D4D0A2B3DCF8301061
:102290001EF1010224D011F4004021D1DCF83010ED
:1022A000BEF1000F1DD011F400401AD1DCF830103F
:1022B000BEF1010F1AD011F4004017D1DCF8301034
:1022C000BEF1020FAEF1040203D011F400409646B5
:1022D000DCD002F1020EBEF1000F05D10BE000BF11
:1022E0009646BEF1000F06D0002080BDAEF1010E73
:1022F000BEF1000FF8D1032080BD000040F62C0095
:10230000C4F20260016841F0010101607047000001
:1023100040F63C00C4F20260006800F440307047B0
:10232000B0B540F6284EC4F2026EDEF80C50DEF86E
:102330000030DEF80010DEF80020DEF81040C2F3B6
:102340000012C4F3CC04C1F3032104FB02F203F036
:10235000030300EE102A6FF35F25B8EE400A012B4D
:1023600001F1010C66D0032B18BF022B62D101EEE4
:1023700010CADEF80C10B8EE411A9FED4D2A6FF32B
:102380005F2182EE011A02EE101A9FED4A3AB8EE72
:10239000422A20EE030A30EE020AB7EE002A30EE9F
:1023A000022ADEF8001021EE020AC90371D5DEF818
:1023B0000C10B7EE002AC1F3462101EE101AB8EE58
:1023C000411A31EE021A80EE011ABCEEC11A11EE6A
:1023D000102A0260DEF80010890360D5DEF80C10C8
:1023E000B7EE002AC1F3064101EE101AB8EE411A09
:1023F00031EE021A80EE011ABCEEC11A11EE102A5B
:102400004260DEF8001049034FD5DEF80C10B7EE3D
:10241000002AC1F3066101EE101AB8EE411A31EE3E
:10242000021A80EE010ABCEEC00A10EE101A81609A
:10243000B0BD00BF5EF8201C090203D4DEF8CC104A
:102440000B0401E05EF8203C48F21C22190FC0F694
:10245000000202EB810102EE10CA91ED001AB8EE03
:10246000422AB8EE411A9FED133A81EE022A01EE9C
:10247000105A20EE030AB8EE411A30EE010AB7EE08
:10248000001A30EE011ADEF8001021EE020AC9032C
:102490008DD400220260DEF8001089039ED4002251
:1024A0004260DEF800104903AFD400218160B0BD66
:1024B0000024744B00000039B0B540F62C4EC4F235
:1024C000026EDEF81050DEF80030DEF80010DEF8A4
:1024D0000020DEF81440C2F30012C4F3CC04C1F3B0
:1024E000032104FB02F203F0030300EE102A6FF352
:1024F0005F25B8EE400A012B01F1010C66D0032BD9
:1025000018BF022B62D101EE10CADEF81010B8EE2F
:10251000411A9FED4D2A6FF35F2182EE011A02EE00
:10252000101A9FED4A3AB8EE422A20EE030A30EE26
:10253000020AB7EE002A30EE022ADEF8001021EE81
:10254000020AC90371D5DEF81010B7EE002AC1F3F4
:10255000462101EE101AB8EE411A31EE021A80EE51
:10256000011ABCEEC11A11EE102A0260DEF800104A
:10257000890360D5DEF81010B7EE002AC1F30641DA
:1025800001EE101AB8EE411A31EE021A80EE011A6D
:10259000BCEEC11A11EE102A4260DEF800104903A9
:1025A0004FD5DEF81010B7EE002AC1F3066101EE38
:1025B000101AB8EE411A31EE021A80EE010ABCEE92
:1025C000C00A10EE101A8160B0BD00BF5EF8241C76
:1025D000090203D4DEF8C8100B0401E05EF8243CC5
:1025E00048F21C22190FC0F6000202EB810102EE34
:1025F00010CA91ED001AB8EE422AB8EE411A9FEDCA
:10260000133A81EE022A01EE105A20EE030AB8EEC8
:10261000411A30EE010AB7EE001A30EE011ADEF868
:10262000001021EE020AC9038DD400220260DEF8F8
:10263000001089039ED400224260DEF80010490396
:10264000AFD400218160B0BD0024744B000000397C
:10265000B0B540F6304EC4F2026EDEF81450DEF82B
:102660000030DEF80010DEF80020DEF81840C2F37B
:102670000012C4F3CC04C1F3032104FB02F203F003
:10268000030300EE102A6FF35F25B8EE400A012B1A
:1026900001F1010C66D0032B18BF022B62D101EEB1
:1026A00010CADEF81410B8EE411A9FED4D2A6FF3F0
:1026B0005F2182EE011A02EE101A9FED4A3AB8EE3F
:1026C000422A20EE030A30EE020AB7EE002A30EE6C
:1026D000022ADEF8001021EE020AC90371D5DEF8E5
:1026E0001410B7EE002AC1F3462101EE101AB8EE1D
:1026F000411A31EE021A80EE011ABCEEC11A11EE37
:10270000102A0260DEF80010890360D5DEF814108C
:10271000B7EE002AC1F3064101EE101AB8EE411AD5
:1027200031EE021A80EE011ABCEEC11A11EE102A27
:102730004260DEF8001049034FD5DEF81410B7EE02
:10274000002AC1F3066101EE101AB8EE411A31EE0B
:10275000021A80EE010ABCEEC00A10EE101A816067
:10276000B0BD00BF5EF8281C090203D4DEF8C41017
:102770000B0401E05EF8283C48F21C22190FC0F659
:10278000000202EB810102EE10CA91ED001AB8EED0
:10279000422AB8EE411A9FED133A81EE022A01EE69
:1027A000105A20EE030AB8EE411A30EE010AB7EED5
:1027B000001A30EE011ADEF8001021EE020AC903F9
:1027C0008DD400220260DEF8001089039ED400221E
:1027D0004260DEF800104903AFD400218160B0BD33
:1027E0000024744B0000003980B584B0024643F6E3
:1027F000FF7300209B1A70EB01034FDA4FF6FF7353
:10280000C0F21F039B1A70EB010380F2B5806FF0DA
:102810007E439B1A4FF0000C7CEB0103C0F2228137
:102820004FF6FF73C0F27F039B1A7CEB0103C0F2EB
:10283000A98182F400130B4300F0EC8282F4800241
:10284000114340F0B48440F60041C4F20261D1F873
:10285000E00000F44040B0F5804F00F0B383002862
:1028600000F08C830A68B0F5004F03D112F4806247
:1028700040F061840A68B0F5404F4FF0000040F02E
:10288000968412F0200200F092848868000200F121
:10289000DD84D1F8F400000400F0E3BCD2F17F0342
:1028A00070EB0103C0F2AE80013A61F10001D2F198
:1028B0003F034FF0000373EB0101C0F07884DFE8C1
:1028C00012F04100E5017604FF01760476047604F7
:1028D0001902760476047604760476047604760487
:1028E000330276047604760476047604760476045D
:1028F0007604760476047604760476047604760408
:102900004F02760476047604760476047604760420
:1029100076047604760476047604760476047604E7
:1029200076047604760476047604760476047604D7
:1029300076047604760476047604760476047604C7
:102940007F0200BF40F60040C4F20260D0F8E01001
:1029500001F00301012900F03583002900F02E83E6
:102960000268022903D112F4806240F0E483D0F8B7
:10297000F000032900F036BC4FF6FF73C0F20103EC
:102980009B1A4FF0000C7CEB010380F299804FF60C
:10299000FF73C0F207039B1A7CEB0103C0F21681A0
:1029A00082F400330B4300F0538282F480221143FF
:1029B00040F0FD8340F60040C4F20260D0F8F01011
:1029C000D0F8F02001F44071B1F5807F03D112F00E
:1029D000020240F05781D0F8F020B1F5007F03D11A
:1029E00012F0006240F06282006810F400301CBFF8
:1029F0004AF22010C0F20700B1F5407F18BF002056
:102A000004B080BD40F2FF339B1A4FF0000C7CEB0A
:102A1000010380F2878040F6FF739B1A7CEB010371
:102A2000C0F2F88082F480630B4300F02B8282F4C2
:102A30000062114340F0BB8340F60040C4F20260E4
:102A4000D0F8E81011F4407100F03483D0F8F02091
:102A5000B1F5807F40F0778112F0006240F026826D
:102A600071E100BF6FF078439B1A7CEB0103C0F269
:102A7000EF8082F000730B4300F0228282F08062CC
:102A8000114340F0948340F60040C4F20260D0F855
:102A9000E410C1F30151DFE811F095020500DD02F9
:102AA000E50200BF0168890640F1A7838168090239
:102AB00000F1B683D0F8F400000400F0D2BB00BFF0
:102AC00082F480430B4300F0138282F400430B43F3
:102AD00000F02E8282F48032114340F0688340F689
:102AE0000041C4F20261D1F8E40000F00702042AB8
:102AF00000F283834BF68030DFE812F02E021402DE
:102B0000BE015903060000BF0868800640F17583C6
:102B10008868000200F19C83D1F8F400000400F002
:102B2000A0BB00BF82F080030B4300F0198282F447
:102B300080730B4300F0268282F40072114340F050
:102B4000368340F60040C4F20260D0F8E81011F479
:102B5000406100F0BB82D0F8F020B1F5806F03D166
:102B600012F0006240F0A2810268B1F5006F03D15B
:102B700012F4806240F0DF82D0F8F000B1F5406FCF
:102B800030E300BF82F400030B4300F00B8282F0BD
:102B90008072114340F00B8340F60040C4F20260A3
:102BA000D0F8E010C1F30141DFE811F0E8010C02B8
:102BB0005A0204000168890640F11F8381680902F6
:102BC00000F13083D0F8F40000044AE382F40023DB
:102BD0000B4300F0FB8182F48012114340F0E78246
:102BE00040F60040C4F20260D0F8E010C1F3816109
:102BF000DFE811F024013802300204000168890680
:102C000040F1FB82816809025ABFD0F8F400000449
:102C1000806826E382F480530B4300F0EB8182F45A
:102C20000052114340F0C38240F60041C4F20261F9
:102C3000D1F8E400C0F34212042A00F2DE824BF61F
:102C40008030DFE812F0310269016F01B4024F02F7
:102C500082F000630B4300F0E98182F0805211435F
:102C600040F0A58240F60041C4F20261D1F8E800CC
:102C7000D1F8F02010F4004040F0FA8112F0020286
:102C800000F0F6814FF4004004B080BD40F60040F3
:102C9000C4F20260D0F8E01001F00C01042900F049
:102CA0009181002900F06A810268082903D112F499
:102CB000806240F04082D0F8F0000C2992E200BF20
:102CC00040F60040C4F20260D0F8E01001F030019C
:102CD000102900F07781002900F050810268202936
:102CE00003D112F4806240F02682D0F8F00030293F
:102CF00078E200BF40F60040C4F20260D0F8E01075
:102D000001F0C001402900F05D81002900F036810A
:102D10000268802903D112F4806240F00C82D0F85E
:102D2000F000C0295EE200BF40F60040C4F202603D
:102D3000D0F8E01001F44071B1F5807F00F04281DD
:102D4000002900F01B810268B1F5007F03D112F465
:102D5000806240F0F081D0F8F000B1F5407F41E2B0
:102D600040F60041C4F20261D1F8E80000F007002B
:102D7000012800F02781002800F010810A6802284D
:102D800003D112F4806240F0D681D1F8F0200328FC
:102D900003D112F002027FF475AF0A6804284FF0E5
:102DA000000040F0048212F0200200F000828868E7
:102DB000000200F15582D1F8F400000451E200BF96
:102DC00040F60041C4F20261D1F8E00000F4406036
:102DD000B0F5806F00F0F680002800F0CF800A6820
:102DE000B0F5006F03D112F4806240F0A4810A684C
:102DF000B0F5406F4FF0000040F0D98112F0200292
:102E000000F0D5818868000200F11E82D1F8F4003C
:102E1000000426E240F60040C4F20260D0F8E4105C
:102E2000490400F17F80D0F8E010C1F38161DFE850
:102E300011F0050019011101E10100BF006846F61B
:102E400000418004C0F2DC2101EAE07004B080BDE2
:102E500040F60041C4F20261D1F8E800C0F302423A
:102E6000042A00F2CA814BF68030DFE812F07500C8
:102E70005B000500A001AD0101A8FFF7E9FB029886
:102E800004B080BD40F60040C4F20260D0F8E0100B
:102E900011F4402100F07280D0F8F020B1F5802FBD
:102EA00040F0428112F0006200F03E81D0F8F00064
:102EB000C0004FF0FA0058BF4FF4FA4004B080BD94
:102EC00040F60040C4F20260D0F8E810C1F3C1013E
:102ED000DFE801F06478C6020168890640F18D815F
:102EE0008168090200F1A081D0F8F4000004B8E183
:102EF00040F60041C4F20261D1F8E400C0F30222BE
:102F0000042A00F27A814BF68030DFE812F0CD001F
:102F100005000B005001EB0001A8FFF799FB019899
:102F200004B080BD01A8FFF7FBF9019804B080BD93
:102F300040F60041C4F20261D1F8E800C0F3023269
:102F4000052A00F22781DFE812F007003D001F018B
:102F500025012501350100BF00F03AFE04B080BD17
:102F600040F60041C4F20261D1F8E00000F44050A4
:102F7000B0F5805F26D0002840F0BE8000F03EFE15
:102F800004B080BD40F60040C4F20260D0F8E81002
:102F9000C1F38111DFE801F0021664D600F06EFE85
:102FA00004B080BD40F60040C4F20260D0F8E010EA
:102FB000C1F30151DFE801F0020654D000F03EFEFB
:102FC00004B080BD00F07AFE04B080BD40F6004041
:102FD000C4F20260D0F8E410026811F4405155D1F7
:102FE00012F4005252D046F60040C0F2DC2004B089
:102FF00080BD00BF40F60040C4F20260D0F8E4108B
:10300000026811F4006103D112F4806240F09380F1
:10301000006810F480601CBF41F20020C0F27A000A
:10302000002908BF084604B080BD00BF40F600413B
:10303000C4F20261D1F8E000096810F0407002D1DA
:1030400011F4003177D1B0F1007F2DD0B0F1807F45
:1030500040F0D38001A8FFF763F9029804B080BD67
:10306000006840E001A8FFF727FA029804B080BD8D
:10307000D1F8F02000284FF0000018BF12F00062D5
:1030800000F09580D1F8F00012E700BF0268B1F5BA
:10309000805F6BD112F4005268D043F20060C0F23E
:1030A0006E1004B080BD00BF01A8FFF705FA0198BB
:1030B00004B080BD0168890640F19F8081680902E3
:1030C00000F1AA80D0F8F4000004CAE00168890683
:1030D00040F193808168090200F1A080D0F8F400EB
:1030E0000004BEE0086842F200414005C0F2F4016D
:1030F00001EAE07004B080BD0A68B0F5005F02D15B
:1031000012F4806217D10A68B0F5405F4FF00000FA
:103110004DD112F020024AD08868000200F19A8056
:10312000D1F8F40000049CE00268B1F5002F55D1FD
:1031300012F4806252D042F20040C0F2F40004B0B7
:1031400080BD00BF0168890657D5816809026DD42A
:10315000D0F8F400000484E0016889064DD5816848
:10316000090265D4D0F8F40000047AE0006810F495
:1031700080601CBF42F20040C0F2F400B1F5005F75
:1031800018BF002013E000BF01A8FFF795F90398CE
:1031900004B080BD00F4E0420B6842F20040B2F59A
:1031A000405FC0F2F4002BD113F4003328D004B0F8
:1031B00080BD00BF086880061FD58868000241D422
:1031C000D1F8F40000044CE00868800615D5886842
:1031D000000241D4D1F8F400000442E0D0F8F0003D
:1031E000B1F5402F00F002024FF0000008BF90033D
:1031F00004B080BD016889061CD4002004B080BDE5
:10320000096811F4806118BF0146B2F5804F18BFFC
:103210000021084604B080BD806822E0806820E07C
:1032200080681EE080681CE080681AE0806818E012
:10323000806816E08168090210D4D0F8F400000418
:103240000FE000BF88680CE088680AE0886808E042
:10325000886806E0886804E0886802E0806800E02A
:103260008868C0F3036048F21C21C0F6000151F8E1
:10327000200004B080BD00002DE9F04F81B004466D
:10328000006840F6E04BC107C4F2026B20D1810711
:1032900028D4410730D4010738D4C10640D4810670
:1032A00048D4410650D4010658D4C10560D4410227
:1032B00068D4810570D4410579D4010500F182807C
:1032C00040F628488004C4F2026800F18A80B4E025
:1032D000DBF80010226D21F003011143CBF8001040
:1032E0008107D6D5DBF80010626D21F00C01114387
:1032F000CBF800104107CED5DBF80010A26D21F00D
:1033000030011143CBF800100107C6D5DBF80010DF
:10331000E26D21F0C0011143CBF80010C106BED50B
:10332000DBF80010226E21F440711143CBF800103D
:103330008106B6D5DBF80810626E21F00701114353
:10334000CBF808104106AED5DBF80010A26E21F4D0
:1033500040611143CBF800100106A6D5DBF8001040
:10336000E26E21F440511143CBF80010C1059ED507
:10337000DBF80810226F21F0C0011143CBF80810D0
:10338000410296D5DBF80010626F21F440411143F1
:10339000CBF8001081058ED5DBF80810A26F21F460
:1033A00040611143CBF8081041057FF586AFDBF88B
:1033B0000010E26F21F440211143CBF80010010509
:1033C0007FF57EAFDBF80810D4F8802021F440713F
:1033D0001143CBF8081040F628488004C4F2026874
:1033E0002BD5D4F890004FEA701104290CD8DFE8EF
:1033F00001F0030D171D1D0004F1080002F0C2FAD0
:103400000646D8B908E000BF012617E004F12C00F9
:1034100002F034FB064688B9D4F8900006E000BFFD
:10342000D8F8001041F48031C8F80010DBF804101F
:1034300021F0E0010843CBF8040000266078400644
:1034400002D4374638E000BFD4F894004FEA302069
:1034500004280BD83746DFE800F0030F1B141400D4
:1034600004F1080002F08EFA0AE000BF01270125EE
:103470006078000624D449E004F12C0002F0FEFA42
:1034800007463D4677B16078000619D43EE000BF9C
:10349000D8F80000374640F48030C8F80000002F0C
:1034A0003D46F0D1DBF80400D4F8941020F4E0603D
:1034B00008430027CBF8040035466078000625D580
:1034C000D4F8A8004FEA3030052807D802280BD0DE
:1034D0003E468FB1A078C0071CD139E001270126F4
:1034E000A078C00716D133E004F1080002F04AFAD0
:1034F0000746002F3E46EDD1DBF80800D4F8A810AF
:1035000020F4E04008430027CBF808002E46A078BE
:10351000C0071DD0D4F88800042800F2A981DFE894
:1035200010F00B000500AB010B000B00D8F80000F9
:1035300040F48030C8F800003D4657B9DBF804007D
:10354000D4F8881020F0070008430027CBF80400C7
:103550003546A07880071FD5D4F88C004FEA30405C
:10356000042800F29381DFE810F00B0005009501BC
:103570000B000B00D8F8000040F48030C8F80000C1
:10358000B94657B9DBF80800D4F88C1020F4E020D5
:1035900008430027CBF80800A946A078400701D4CB
:1035A0004D465DE05BF84C0C10F0040A0BD15BF863
:1035B0004C0C40F004004BF84C0C5BF84C0C00F049
:1035C0000400009000984FF60045CFF6FF7558F8BC
:1035D000050040F0010048F80500FEF78DFA0646A8
:1035E00058F80500C00707D1FEF786FA801B0228AD
:1035F000F6D9032703252AE03D4647BBDBF8100038
:1036000010F4407018D0D4F8C010884211D0DBF804
:103610001000DBF8101020F4407041F48031CBF83A
:103620001010DBF8101021F48031CBF81010CBF81B
:103630001000C00740F03881DBF81000D4F8C0104B
:1036400020F44070084300274D46CBF81000BAF133
:10365000000F05D15BF84C0C20F004004BF84C0C2B
:10366000A078C0061BD5D4F8A0004FEAB0600328AC
:1036700000F2E880DFE800F00702EA0704F1080042
:1036800002F080F90746394657B9DBF80000D4F854
:10369000A01020F0406008430027CBF80000294626
:1036A0002068020320D5D4F8982032B1B2F5005F2B
:1036B00018BFB2F5805F40F0D5803E4667B1C104C7
:1036C00015D481021ED4010230D4C10139D4810144
:1036D00042D440014BD471E0DBF80430002723F4DE
:1036E00040531A43CBF804200E46C104E9D5DBF859
:1036F0000410D4F89C2021F400611143CBF804108D
:103700008102E0D5D4F8A410B1F5804F05D1D8F8E6
:10371000002042F48032C8F80020DBF8042022F4B4
:1037200080421143CBF804100102CED5DBF8001023
:10373000D4F8B42021F440111143CBF80010C1019A
:10374000C5D5DBF80010D4F8B82021F4403111437E
:10375000CBF800108101BCD5DBF80810D4F8BC20F0
:1037600021F018011143CBF80810400126D5D4F8F8
:10377000B000B0F5401F0FD0B0F5001F05D1D8F84C
:10378000000040F40030C8F800003D4667B1E07822
:10379000000717D43EE000BF04F1080002F0F2F881
:1037A0000746002F3D46F2D1DBF80400D4F8B010F4
:1037B00020F4401008430027CBF804003546E07899
:1037C000000727D5D4F8840058B1B0F1007F11D09C
:1037D000B0F1807F30D1D8F8000040F40030C8F854
:1037E000000077B1E078C00618D4384601B0BDE8D3
:1037F000F08F00BF04F1080002F0C4F80746002F64
:10380000F0D1DBF80000D4F8841020F040700843B9
:10381000CBF800002F46E078C006E6D5DBF80800BC
:10382000D4F8AC1020F400400843CBF80800384628
:1038300001B0BDE8F08F00BF0127E078C006D4D505
:10384000ECE700BF012701212AE700BFD8F80000FC
:1038500040F40030C8F80000002F39467FF420AF54
:1038600013E700BF01270126C1047FF52AAF3EE719
:10387000012701256DE600BF04F12C0002F0FEF8DF
:103880000746002F3D467FF464AE57E601274FF010
:10389000010982E604F12C0002F0F0F80746002F3F
:1038A000B9467FF47AAE6DE6FEF726F906460327A1
:1038B000032500BFDBF8100080073FF5BDAEFEF723
:1038C0001BF9801B41F288318842F3D9BFE6000022
:1038D0002DE9F04F81B0002800F01C8142F2000871
:1038E000C4F202080446D8F800000D4600F00F00AC
:1038F00088420DD2D8F8000020F00F002843C8F805
:103900000000D8F8000000F00F00A84240F002814B
:10391000206840F62049C106C4F202690DD56169EC
:10392000D9F8042002F07002914206D9D9F8042097
:1039300022F070021143C9F8041001070FD5216964
:10394000D9F80020702303EA1212914207D9D9F85E
:10395000002022F4E06242EA0111C9F80010410798
:103960000DD5E168D9F8002002F07002914206D925
:10397000D9F8002022F070021143C9F80010810725
:103980000DD5A168D9F8002002F00F02914206D9A6
:10399000D9F8002022F00F021143C9F80010C00727
:1039A00074D1206881070DD5A168D9F8002002F0F4
:1039B0000F02914206D2D9F8002022F00F021143E3
:1039C000C9F80010D8F8001001F00F01A9420DD974
:1039D000D8F8001021F00F012943C8F80010D8F8DA
:1039E000001001F00F01A94240F0948041070DD56D
:1039F000E168D9F8002002F07002914206D2D9F8AD
:103A0000002022F070021143C9F8001001070FD501
:103A10002169D9F80020702303EA1212914207D2DB
:103A2000D9F8002022F4E06242EA0111C9F800103E
:103A3000C0060DD56069D9F8041001F07001884204
:103A400006D2D9F8041021F070010843C9F8040027
:103A500000F034F9D9F8001048F2841201F00F0197
:103A6000C0F60002525C40F20401C2F20001096893
:103A700040F2080320FA02F2C2F2000308461A607C
:103A800001B0BDE8F04FFEF71DBB00BF606840F617
:103A90001C47C4F2026768B3022831D0032835D12D
:103AA000D9F8740010F0040A0BD1D9F8740040F072
:103AB0000400C9F87400D9F8740000F00400009004
:103AC0000098FEF719F84FF6F03BCFF6FF7B57F85A
:103AD0000B10490322D4BAF1000F05D1D9F87400B4
:103AE00020F00400C9F8740057F81C0C800111D5AF
:103AF000606822E057F81C0C40070BD500201CE042
:103B000057F81C0C800317D4012042E057F81C1C06
:103B1000490512D4012001B0BDE8F08F064600BF70
:103B200057F80B004004D6D4FDF7E6FF801B0228AF
:103B30004FF00300F4D92CE00220396821F0030192
:103B400008433860FDF7D8FF61680646032941F253
:103B5000883A28D0022934D071B900BF386810F0F3
:103B60000C0F3FF41EAFFDF7C7FF801B50454FF011
:103B70000300F3D90DE000BF386800F00C00042802
:103B80003FF40FAFFDF7B8FF801B50454FF0030027
:103B9000F2D901B0BDE8F08FFDF7AEFF801B5045B4
:103BA0004FF00300F5D8386800F00C000C28F3D172
:103BB000F7E600BFFDF7A0FF801B50454FF0030064
:103BC000E7D8386800F00C000828F3D1E9E60000D7
:103BD00080B500F073F840F62041C4F20261096834
:103BE00048F2841201F00F01C0F60002515CC84097
:103BF00040F20801C2F20001086080BD80B500F00B
:103C00005DF840F62041C4F202610A6848F284136C
:103C100002F00F02C0F600039A5CD04040F20802A6
:103C2000C2F200021060096848F29412C1F3021156
:103C3000C0F60002515CC84080BD000080B500F0B5
:103C40003DF840F62041C4F202610A6848F284134C
:103C500002F00F02C0F600039A5CD04040F2080266
:103C6000C2F200021060096848F29412C1F3022106
:103C7000C0F60002515CC84080BD000080B500F075
:103C80001DF840F62041C4F202610A6848F284132C
:103C900002F00F02C0F600039A5CD04040F2080226
:103CA000C2F200021060496848F29412C1F3021196
:103CB000C0F60002515CC84080BD000080B540F6EF
:103CC0002841C4F2026151F80C0C10F00C02086893
:103CD00016D00C2A04BF00F00300012810D051F8C0
:103CE0000C0C9FED370A00F00C00042842F2004053
:103CF000C0F2F4001ED0082A18BF00201AE000BF4E
:103D000051F8200C000205D4D1F8CC00C0F30330E8
:103D100003E000BF51F8200C000F48F21C23C0F64E
:103D2000000353F82000002A00EE100A18BF0020FC
:103D3000B8EE400A0C2A18BF80BDD1F800C00A684E
:103D40009FED201AC2F303220B6802F1010E0869ED
:103D50005FEA8C7258BFB0EE401A00EE10EAC3F36F
:103D60000013B8EE400AC0F3CC0081EE000A00FB5D
:103D700003F09FED153A01EE100AC868B8EE411A3B
:103D80006FF35F2002EE100A21EE031AB8EE422A0A
:103D9000C86831EE021AB7EE002AC0F3066031EEB1
:103DA000021A013020EE010A01EE100AB8EE411AA3
:103DB00080EE010ABCEEC00A10EE100A80BD00BF02
:103DC000000000000024744B000000392DE9F0438E
:103DD00081B0002800F0468440F694490446C4F2BD
:103DE000026959F8780C59F86C1C227800F00C071D
:103DF000D00601F0030823D42078C0077AD0082F1A
:103E000074D00C2F08BFB8F1030F6FD0606840F674
:103E10000046B0F5803FC4F2026600F0EB82B0F5D8
:103E2000A81F00F0DF82B0F5A02F40F0F7823068C5
:103E300040F480203060306820F48010D9E200BF68
:103E400017B30C2F08BFB8F1010F1DD040F6004684
:103E5000C4F20266E1693068002900F0BB8140F0DD
:103E600001003060FDF748FE054600BF306840079E
:103E700000F1C281FDF740FE401B02284FF0030015
:103E8000F4D901B0BDE8F083E069002800F0EA83CE
:103E900040F60045C4F20265666AA86800025ABF8F
:103EA000D9F860000004A86800F07040864240F233
:103EB0006581002F40F03483D9F80000400700F1FD
:103EC0001383D9F8000040F00400C9F80000D9F8C5
:103ED000000000F0040000900098FEF719FAD9F8ED
:103EE000001021F00401C9F80010FFE2606800280A
:103EF00000F0B883207880072FD5042F20D00C2F16
:103F000008BFB8F1020F1BD040F60046C4F20266AB
:103F1000E1683068002900F0298240F48070306048
:103F2000FDF7EAFD054600BF306840050CD4FDF7FB
:103F3000E3FD401B02284FF00300F5D9A1E700BFC5
:103F4000E068002800F08E8359F8840C216920F481
:103F5000F81040EA014049F8840C207840F6004708
:103F60000007C4F2026775D42078400700F1CA80C8
:103F70002078800600F116812078000600F150813B
:103F80002078400600F1B881A56B002D00F0A784D1
:103F900059F8780C00F00C000C2840F06F8259F8AA
:103FA0006C1C59F8600C012D00F05C83E26B01F091
:103FB0000303934240F05683226CC1F30323013A7A
:103FC000934240F04F83626C01F47041914240F0A3
:103FD0004983A26C01466FF35F21013A914240F0A0
:103FE0004183E16CC0F3462201398A4240F03A83B2
:103FF000216DC0F3064201398A4240F03383616D7E
:10400000C0F306600139884240F02C8359F85C0CFB
:10401000E16DC0F3CC00884200F0618459F86C0C6B
:1040200020F0100049F86C0CFDF766FD0546FDF721
:1040300063FDA842FBD0E06DC00049F85C0C59F864
:104040006C0C40F0100049F86C0C002001B0BDE889
:10405000F08300BFD9F8000010F004080BD1D9F8A4
:10406000000040F00400C9F80000D9F8000000F09A
:104070000400009000984FF62846CFF6FF76B85916
:10408000C00713D1B85940F00100B851FDF734FD15
:10409000054600BFB859C00708D1FDF72DFD401BEC
:1040A0000228F7D9032001B0BDE8F0836069D9F890
:1040B0005C10002800F0CC80A06901F08052904292
:1040C00000F04A8301F04062B2F1006F00F0CA8252
:1040D000490140F13A83D9F85C0020F0A050C9F8BA
:1040E0005C00FDF709FD0546D9F85C00000140F1D0
:1040F0002B83FDF701FD401B05284FF00300F3D98A
:10410000BFE600BFD9F8000010F004080BD1D9F8C1
:10411000000040F00400C9F80000D9F8000000F0E9
:104120000400009000984FF62846CFF6FF76B85965
:10413000C00713D1B85940F00100B851FDF7DCFCBD
:10414000054600BFB859C00708D1FDF7D5FC401B94
:1041500002284FF00300F5D993E600BFA568E807F1
:1041600040F08C80D9F85C0020F00100C9F85C00B8
:10417000D9F85C0020F004008CE000BFA868B6F11C
:10418000404F40F40000A860A86820F0704040EA6A
:104190000600A860C0F0CA80E868216A20F01F000D
:1041A00008431CE2E16A3868002900F0098140F404
:1041B00080503860FDF7A0FC054600BF38688004D9
:1041C0003FF5DAAEFDF798FC401B02284FF00300E4
:1041D000F4D956E620F001003060FDF78DFC05466D
:1041E000306840077FF508AEFDF786FC401B0228CB
:1041F0004FF00300F4D944E6B06840F40000B0602A
:10420000B168606A21F070410143B0F1404FB16084
:10421000C0F09C80F068216A20F01F0008435EE235
:10422000216B3868002900F0178140F48040386025
:10423000FDF762FC054600BF386800043FF5A0AEFC
:10424000FDF75AFC401B02284FF00300F4D918E692
:1042500021F0A050C9F85C00FDF74EFC054600BFF8
:10426000D9F85C00000140F18F82FDF745FC401B4E
:1042700005284FF00300F3D903E600BFD9F85C002E
:10428000690705D540F00400C9F85C00D9F85C0066
:1042900040F00100C9F85C00FDF72EFC002D05463A
:1042A00041F2883614D000BFD9F85C0080076FD483
:1042B000FDF722FC401BB0424FF00300F4D9E0E5CB
:1042C000FDF71AFC401BB0424FF003003FF6D9AD9A
:1042D000D9F85C008007F3D4D9F85C00000600F13F
:1042E0000182B8F1000F7FF443AED9F8000020F04E
:1042F0000400C9F800003BE6606B002800F0E08095
:10430000B86840F40000B860B86820F07061D4E983
:104310000902B0F1404F41EA0201B960C0F04A81A0
:10432000F868216A20F01F000843EAE2B6F1FF3F77
:1043300040F31A81E868B6F1804FC0F04B81216AE2
:1043400020F4F84040EA812049E100BFB0F1FF3F8E
:1043500040F39481F168B0F1804FC0F0BB81206AD6
:1043600021F4F84141EA8020B9E100BF20F48070D7
:104370003060FDF7C1FB0546306840057FF5EDADC7
:10438000FDF7BAFB401B02284FF00300F4D978E593
:10439000A168D9F85C00090600F1F88020F08000DF
:1043A00041F28836C9F85C00D9F85C00000598D560
:1043B000FDF7A2FB401BB0424FF00300F4D960E5CB
:1043C00020F480503860FDF797FB0546386880047C
:1043D0007FF5D2ADFDF790FB401B02284FF00300A4
:1043E000F4D94EE5306840F480203060306840F405
:1043F00080103060306840F480303060FDF77CFB26
:10440000054600BF306880033FF574ADFDF774FBCF
:10441000401B64284FF00300F4D932E531680028CE
:1044200021F480313160316821F4802131603168BC
:1044300021F480113160E1D1FDF75EFB0546306863
:1044400080037FF557ADFDF757FB401B64284FF005
:104450000300F4D915E500BF20F480403860FDF773
:104460004BFB0546386800047FF58AADFDF744FB39
:10447000401B02284FF00300F4D902E5386820F011
:1044800080703860FDF738FB022D05460CD1386886
:10449000800140F18581FDF72FFB401B02284FF082
:1044A0000300F4D9EDE400BF3868800140F10E82CA
:1044B000FDF722FB401B02284FF00300F4D9E0E493
:1044C000386820F010003860FDF716FB05463868A4
:1044D00080067FF559ADFDF70FFB401B02284FF01A
:1044E0000300F4D9CDE400BFFDF712FF20F48031C2
:1044F000B1F5003F40D10021B6F1805F38BF012106
:1045000042F20000C4F20200026822F00F020A44E4
:104510000260006800F00F00884240F0A380666AE5
:10452000A868B6F1404F40F40000A860A86820F0E9
:10453000704040EA0600A86006D3E868216A20F0CF
:104540001F000843A7E000BFB6F1FF3F40F38E8095
:10455000E868B6F1804FC0F09980216A20F4F840F5
:1045600040EA812097E000BFE868216A20F4787073
:1045700040EA411033E000BF0021B1EB167F40F06C
:10458000C780B0F5803F6DD10321B9E740F08000CE
:1045900041F28836C9F85C00D9F85C0000053FF5A7
:1045A000A0AEFDF7A9FA401BB0424FF00300F3D9CB
:1045B00067E400BFB0F1FF3F40F39681F968B0F1C6
:1045C000804FC0F09981206A21F4F84141EA8020AF
:1045D00097E100BF216A20F4782040EAC130002F23
:1045E000E86059D1D9F80000400715D4D9F8000087
:1045F00040F00400C9F80000D9F8000000F0040001
:1046000000900098FDF784FED9F8001021F0040115
:10461000C9F8001002E000BFFDF77AFE20F48031F7
:10462000B1F5003F14D10021B6F1805F38BF012100
:1046300042F20000C4F20200026822F00F020A44B3
:104640000260006800F00F0088420BD124E000BF38
:104650000021B1EB167F69D1B0F5803F02D1032173
:10466000E6E700BF012001B0BDE8F083E868216AF9
:1046700020F4787040EA41100DE000BFF068216A34
:1046800020F4787040EA411029E000BF216A20F44C
:10469000782040EAC130E860FFF710FB59F8741C3D
:1046A00048F2841201F00F01C0F60002515C40F2A2
:1046B000080220FA01F140F20400C2F20000006892
:1046C000C2F200021160FDF7FDFC00287FF4D9ABB7
:1046D000FFF792BB206A21F4782141EAC030F060F4
:1046E000FFF78ABBD9F85C0041F2883620F08000E1
:1046F000C9F85C00D9F85C0000057FF5F2ADFDF764
:10470000FBF9401BB0424FF00300F3D9FFF7B9BBF0
:10471000B6F1005F40F20C81B0FA80F00021400950
:10472000B6F1405F98BF01210140E9E6B6F1005FB4
:1047300040F20881B0FA80F000214009B6F1405FF4
:1047400098BF0121014073E7A069D9F85C1021F0FE
:1047500080510843C9F85C00D9F85C0040F08060E3
:10476000C9F85C00FDF7C8F9054600BFD9F85C0040
:10477000000109D4FDF7C0F9401B05284FF00300E4
:10478000F4D9FFF77EBB00BFB8F1000F7FF4ECABAC
:10479000D9F8000020F00400C9F80000FFF7E4BBDE
:1047A000D9F8000010F0040C0BD1D9F8001041F03A
:1047B0000401C9F80010D9F8001001F004010091BB
:1047C00000994FF60C48CFF6FF7857F808E057F8F5
:1047D00008304FF6037623F4802347F8083059F861
:1047E0006C3CD4E91102B343D4E90F656FF0FF01CB
:1047F0003343184301EB05214FF47E43084349F846
:104800006C0C59F8600C0021C8F280010840511E60
:10481000E26C4FF4FE0503EB4222236D6FF35F2140
:1048200005EB0343656D92B24FF0FE4606EB05655E
:10483000084403F4FE03104405F0FE4518442844E0
:1048400049F8600C59F86C0C20F0100049F86C0C19
:10485000E06DC00049F85C0C59F86C0C40F0100099
:1048600049F86C0C59F86C0CA16D20F00C00084351
:104870005FEA4E3149F86C0C05D557F8080040F452
:10488000802047F80800BCF1000F05D1D9F80000DE
:1048900020F00400C9F8000059F86C0C40F48020A6
:1048A00049F86C0C386840F080703860FDF724F9E6
:1048B00004463868800112D4FDF71EF9001B022857
:1048C0004FF00300F5D9FFF7DCBA00BF59F86C0CC4
:1048D0004FF6FC71CFF6F871084049F86C0C0020D7
:1048E00001B0BDE8F08300BFF868216A20F4787059
:1048F00040EA411005E000BF206A21F4782141EA36
:10490000C030F860386840F010003860FDF7F4F807
:10491000054600BF386880063FF536ABFDF7ECF87A
:10492000401B02284FF00300F4D9FFF7AABA00BFDA
:104930000221B0F5803F08BF0121B6F1805F18BFAA
:104940000121DDE50221B0F5803F08BF0121B6F16C
:10495000805F18BF01216BE6411E0020B0EB116F94
:104960001CBF012070474EF21002CEF200025160CF
:104970004EF62351CEF20001F0230B700721906018
:104980001160704790F88410012904BF022070471D
:104990002421C0F8881002681168136823F001030D
:1049A000136021F000530021416613602022C0F8FB
:1049B000882080F884100846704700007047000087
:1049C00070470000B0B590F88420012A04BF02208F
:1049D000B0BD2422C0F888200268D0F864E0D2F884
:1049E00000C01368BEF1000F23F001031360936849
:1049F00023F0606341EA0301916019D093689168E4
:104A000048F2742E490FC0F6000E48F27C251EF8BD
:104A10000140C0F60005C3F34263695CE400B4FBE7
:104A2000F1F11EF80340EB5CE500B5FBF3F301E0A8
:104A300001210123A0F86A102021A0F86830C2F8F3
:104A400000C0C0F88810002180F884100846B0BD6E
:104A5000B0B590F88420012A04BF0220B0BD242202
:104A6000C0F888200268D0F864E0D2F800C013686B
:104A7000BEF1000F23F001031360936823F060433D
:104A800041EA0301916019D09368916848F2742E4D
:104A9000490FC0F6000E48F27C251EF80140C0F612
:104AA0000005C3F34263695CE400B4FBF1F11EF856
:104AB0000340EB5CE500B5FBF3F301E001210123CA
:104AC000A0F86A102021A0F86830C2F800C0C0F831
:104AD0008810002180F884100846B0BD704700009F
:104AE0007047000070B50446006840F62F01C269A7
:104AF0000668D0F808E0114020290BD106F020010B
:104B00000EF08053C91823D0616FD1B32046BDE8A1
:104B10007040084740F60F010A4219D00121C1F246
:104B200000010EEA010C40F22011C0F200413140B8
:104B300011EB0C010CD0D10718BF16F4807140F0B6
:104B40008D8191070EF0010300F194819BE100BF7C
:104B5000E16E06EA0203DD0614D5012912D1102107
:104B600001628168490600F1D780B4F85C10B4F89E
:104B70005E20B4F85E30002B1CBF891A5FEA014248
:104B80002AD170BD110640F18B8006F080010EF431
:104B90000005491900F08480A16F0029B6D1F0E723
:104BA000206850E8000F226820F4907042E800036B
:104BB000DBB1206850E8000F226820F4907042E8D2
:104BC000000393B1206850E8000F226820F4907031
:104BD00042E800034BB1206850E8000F226820F43F
:104BE000907042E80003002BDAD14FF6FE70CEF64B
:104BF000FF7000BF226852E8022F2368024043E89A
:104C00000226C6B1226852E8022F2368024043E818
:104C1000022686B1226852E8022F2368024043E848
:104C2000022646B1226852E8022F2368024043E878
:104C30000226002EDED12020C4F88C000020E06681
:104C4000606700BF206850E8000F226820F0100065
:104C500042E80003DBB1206850E8000F226820F032
:104C6000100042E8000393B1206850E8000F22686A
:104C700020F0100042E800034BB1206850E8000F1C
:104C8000226820F0100042E80003002BDAD1022253
:104C900089B220462267BDE87040FFF78FBE00BF93
:104CA00059060BD4100240F1CF8116F0804000F07D
:104CB000CB812046BDE87040FFF710BF50E8000FE1
:104CC000216820F0400041E80002002A00F0BC808A
:104CD000206850E8000F216820F0400041E8000201
:104CE000002A00F0B180206850E8000F216820F011
:104CF000400041E80002002A00F0A680206850E849
:104D0000000F216820F0400041E80002002A00F076
:104D10009B802068D2E700BFD4F8802011688B6C9C
:104D20009DB2002D3FF42DAFB4F85C108D42BFF45E
:104D300028AFA4F85E30126D812A7AD050E8000FB7
:104D4000216820F4807041E80002C2B3206850E876
:104D5000000F216820F4807041E800027AB32068D7
:104D600050E8000F216820F4807041E8000232B35F
:104D7000206850E8000F216820F4807041E80002AC
:104D8000EAB12068DAE700BF206850E8020F216826
:104D900020F0010041E80202DAB1206850E8020F79
:104DA000216820F0010041E8020292B1206850E839
:104DB000020F216820F0010041E802024AB1206898
:104DC00050E8020F216820F0010041E80202002AA9
:104DD000DAD12020C4F88C000020E066206850E87A
:104DE000000F216820F0100041E80002DAB12068CD
:104DF00050E8000F216820F0100041E8000292B155
:104E0000206850E8000F216820F0100041E80002FF
:104E10004AB1206850E8000F216820F0100041E8F6
:104E20000002002ADAD1D4F88000FCF7CDFCB4F8F7
:104E30005C1002202067B4F85E00081A81B2204698
:104E4000BDE87040FFF7BABD20200021C4F88800FB
:104E50002046A167BDE8704000F048BA0121016218
:104E6000D4F8901041F00101C4F8901091070EF0B1
:104E7000010308D53BB102210162D4F8901041F042
:104E80000401C4F89010510708D53BB10421016218
:104E9000D4F8901041F00201C4F8901011070CD51D
:104EA00006F0200151EA0C0107D008210162D4F874
:104EB000901041F00801C4F8901011050BD516F0C0
:104EC000806108D04FF400610162D4F8901041F085
:104ED0002001C4F89010D4F8901000293FF451AE8E
:104EE00012F020011EBF06F020010EF0805211EBDF
:104EF000020140F0B580D4F89010826801F02801DA
:104F000002F04002891800F0978000BF50E8000FBF
:104F1000216820F4907041E80002EAB1206850E86E
:104F2000000F216820F4907041E80002A2B12068CF
:104F300050E8000F216820F4907041E800025AB157
:104F4000206850E8000F216820F4907041E80002CA
:104F500012B12068DAE700BF4FF6FE70CEF6FF70A0
:104F6000216851E8021F2268014042E80213C3B1E0
:104F7000216851E8021F2268014042E8021383B110
:104F8000216851E8021F2268014042E8021343B140
:104F9000216851E8021F2268014042E80213002BF9
:104FA000DED1E06E012824D1206850E8000F21688E
:104FB00020F0100041E80002DAB1206850E8000F4C
:104FC000216820F0100041E8000292B1206850E80A
:104FD000000F216820F0100041E800024AB120686B
:104FE00050E8000F216820F0100041E80002002A7C
:104FF000DAD12020C4F88C000020E06621686067C8
:105000008868400612D5D4F8800078B145F67561FD
:10501000C0F60001C166FCF72FFC00283FF4B1ADDB
:10502000D4F88000C16EBDE8704008472046BDE856
:105030007040FFF755BD00BF2046FFF751FD00202F
:10504000C4F8900070BD00BFD0017FF59AADB6F1F5
:10505000FF3FC8BF70BD2046BDE87040FFF7B0BC41
:10506000616F00293FF447AF20468847206842E738
:1050700010B5B0B10446D0F8880028B9002084F8F3
:105080008400204600F028F82420C4F88800206816
:10509000016821F001010160204601F0F9FB0128BF
:1050A00002D1012010BD00BFA06A00281CBF20460D
:1050B00000F0B4FD2168486820F49040486088689A
:1050C00020F02A008860086840F0010220460A604B
:1050D000BDE8104000F016BE2DE9F041BAB004461C
:1050E000002502A8C8213995CDE93755CDE93555B8
:1050F000FBF75DFB206843F60001C4F20101884222
:105100005AD045F20001C4F20001884240F0858087
:1051100010200025029002A803951A95FEF7ACF81E
:10512000002818BFFCF74AFB40F68C40C4F202602E
:105130000169002641F4801101610169C4F202266F
:1051400001F4801101910199016835AC41F004012D
:10515000016001684FF0020801F00401019101991A
:105160000168082741F0080101600068214600F04D
:105170000800019001984FF48050359006F50060CA
:10518000CDE9368538953997FCF7A2FB0420CDE9A7
:10519000350806F540602146CDE937553997FCF7CB
:1051A00097FB412000210022FCF7D4FF4120FCF7AF
:1051B000C1FF3AB0BDE8F0810120029002A803953A
:1051C0001695FEF759F8002818BFFCF7F7FA40F6D5
:1051D0008C40C4F20260816941F48041816181693F
:1051E00001F4804101910199016841F001010160E0
:1051F000006835A900F00100019001984FF4C060EB
:105200003590022036900020CDE9370007203990F4
:105210000020C4F20220FCF75BFB3AB0BDE8F0814D
:1052200080B5D0F88C30202B1CBF022080BD002917
:105230004FF0010318BF002A02D1184680BD00BFFD
:105240000023C366D0F800C0DCF808305B0605D543
:10525000DCF8083023F04003CCF8083042F2004379
:105260004CF0805EC5F200639E4503D0DCF804304C
:105270001B0205D401F01AFC0023184680BD00BFB4
:105280005CE800CFD0F800E04CF080634EE8003CD2
:10529000BCF1000FEED0036853E800CFD0F800E077
:1052A0004CF080634EE8003CBCF1000FE2D0036894
:1052B00053E800CFD0F800E04CF080634EE8003CAB
:1052C000BCF1000FD6D0036853E800CFD0F800E05F
:1052D0004CF080634EE8003CBCF1000FCAD003687C
:1052E00053E800CFCEE70000704700007047000091
:1052F000FEE7000070B50446006815468369DA06CB
:1053000002D4002100226AE00E461021C1618169A9
:10531000890660D4711C54D046BBFCF7EDFB2068B5
:10532000426894F842308169202B0DD012F48042FB
:105330000AD111F4004107D0416841F48041416035
:10534000FCF7DAFB054600BF20688169890605D4B1
:10535000FCF7D2FB401B1928F6D92AE0816989069F
:10536000DBD538E020688169890634D4FCF7C4FBBA
:10537000401BB042F6D92068426894F842308169F7
:10538000202B0DD012F480420AD111F4004107D035
:10539000416841F480414160FCF7AEFB054600BF27
:1053A000206880698006DDD4FCF7A6FB401B1A2824
:1053B000F6D3206801228169242110E081698906E1
:1053C00009D48169890606D4816989065CBF81692F
:1053D0005FEA8161F2D52021C16101220421836944
:1053E000DE0505D54FF4807241F00101C261012252
:1053F0005E0507D49B050CD4002A04BF002070BDB5
:105400000CE000BF41F008014FF480629B05C261CF
:1054100004D541F002014FF40072C2618269920723
:1054200044BF002282628269D20703D1826942F0BE
:105430000102826142684EF60003CFF600631A4013
:105440004260606C08436064202084F841000020C2
:1054500084F8420084F84000012070BD2DE9F0413D
:1054600006460068144682690D461140491BB1FA90
:1054700081F14909A14240D11F46591C1AD0002F81
:105480003ED100BFFCF738FB306881692940491BD9
:10549000B1FA81F14909A14250D080692840401BEE
:1054A000B0FA80F04009A0421CBF0020BDE8F081A6
:1054B000E8E700BF81692940491BB1FA81F1490938
:1054C000A1421CBF0020BDE8F08181692940491B31
:1054D000B1FA81F14909A1420FD181692940491BE3
:1054E000B1FA81F14909A14207D181692940491BDB
:1054F000B1FA81F14909A142DCD00020BDE8F08178
:10550000DDF818800BE000BF80692840401BB0FA2E
:1055100080F04009A0421CBF0020BDE8F081FCF7EC
:10552000EBFAA0EB08013068B942EDD98169294056
:10553000491BB1FA81F14909A142E5D1706C40F0F3
:1055400020007064202086F84100002086F8420088
:1055500086F840000120BDE8F081000070B50446E7
:105560000068806940073DD415460E4619B930E001
:105570008069400736D4204631462A46FFF7BAFEF6
:1055800070BB2068816989062ED4FCF7B5FA411BEF
:105590002068B142ECD981694907E9D4606C40F0D8
:1055A00020006064202084F84100002084F840003E
:1055B000012070BD20688169890615D4FCF79CFA2A
:1055C000206881694907E9D58069400744BF002008
:1055D00070BD204600212A46FFF78CFE0028E9D046
:1055E000012070BD002070BD8169490704D5218D5F
:1055F00000291CBF002070BD82694EF60006D2064D
:105600004FF0000242BF1022C261042262642022D5
:10561000C2614368CFF60066334000214360012039
:1056200084F8412084F8421084F8401070BD0000D6
:1056300070B5044600688069800637D415460E466A
:1056400019B92AE08069800630D4204631462A46BE
:10565000FFF750FE40BBFCF74FFA411B2068B142F8
:10566000F0D981698906EDD4606C40F02000606457
:10567000202084F84100002084F8420084F8400093
:10568000012070BDFCF738FA206881698906EBD5E6
:105690008069800644BF002070BD204600212A4654
:1056A000FFF728FE0028EDD0012070BD002070BD5E
:1056B00070B504460068806980074DD415460E46D3
:1056C000481C1DD04EBB00BF204600212A46FFF7D4
:1056D00011FE00281CBF012070BDFCF70DFA2068E8
:1056E0008169890729D58069800744BF002070BD82
:1056F000EAE700BF20688069800744BF002070BDD2
:1057000020464FF0FF312A46FFF7F4FD0028F1D084
:10571000012070BD806980071ED4204631462A468C
:10572000FFF7E8FD0028F3D1FCF7E6F9411B2068FC
:10573000B142EFD981698907ECD4606C40F0200058
:105740006064202084F84100002084F8420084F83E
:105750004000012070BD00BF002070BD70B586B054
:10576000002540F68C400595C4F20260016840F6C1
:10577000000441F0040101600168C4F2022401F058
:105780000401009100990168002241F001010160CB
:105790000168402601F0010100910099016841F083
:1057A00008010160016801F0080100910099016899
:1057B00041F0020101600068402100F00200009009
:1057C00000982046FCF792F90120CDE9020501A9D5
:1057D000204601960495FCF77BF806B070BD0000EA
:1057E00080B540F67C4045F2004340F61461C2F2B9
:1057F00000000022C4F200034FF0010CC0E90031A8
:10580000C0E9022CC0E90422C0E906220262FCF7CA
:10581000C3F9002818BFFBF7D1FF40F67C40C2F265
:1058200000000021FCF76EF9002818BFFBF7C6FF47
:1058300040F67C40C2F200000021FCF789F9002804
:1058400008BF80BDBDE88040FBF7B8BF80B5002031
:10585000FCF7E4FB002818BFFBF7B0FFFCF7EEFBFA
:10586000002808BF80BDBDE88040FBF7A7BF00004F
:1058700080B540F6645045F200034FF4E131C2F2C6
:1058800000000022C4F200034FF00C0CC0E900310C
:10589000C0E90222C0E9042CC0E90622C0E90822BE
:1058A0008262FFF7E5FB002818BFFBF787FF40F691
:1058B0006450C2F200000021FFF7CAF8002818BFA8
:1058C000FBF77CFF40F66450C2F200000021FFF7B6
:1058D00079F8002818BFFBF771FF40F66450C2F258
:1058E0000000FFF74FF8002808BF80BDBDE88040EA
:1058F000FBF764BF80B540F6D04043F600034FF499
:10590000E131C2F200000022C4F201034FF00C0C9E
:10591000C0E90031C0E90222C0E9042CC0E9062236
:10592000C0E908228262FFF7A3FB002818BFFBF73B
:1059300045FF40F6D040C2F200000021FFF788F892
:10594000002818BFFBF73AFF40F6D040C2F2000033
:105950000021FFF737F8002818BFFBF72FFF40F6AC
:10596000D040C2F20000FFF70DF8002808BF80BD4C
:10597000BDE88040FBF722BFFEE70000FEE7000025
:105980007047000070B540F62C46C4F2026656F827
:105990002C1C044621F0806046F82C0CFCF7ACF877
:1059A000054600BF56F82C0C000107D5FCF7A4F8FB
:1059B000401B022884BF032070BDF3E7306840F627
:1059C0000371884394E80E106FF0FF0505EB022287
:1059D00008431043306030690021C8F2800100EABA
:1059E000010E591E4FF47E42236902EB4C224FF404
:1059F000FE0505EB034365696FF35F2192B24FF03B
:105A0000FE4000EB0560714403F4FE03114400F016
:105A1000FE401944084430613068A16920F00C0050
:105A200008433060206A31680843306030684FF6C0
:105A3000F87120F0100030607069E269884340EA34
:105A4000C2007061306840F01000306056F82C0CD5
:105A500040F0806046F82C0CFCF74EF8044600BF7E
:105A600056F82C0C000144BF002070BDFCF744F830
:105A7000001B032824BF032070BDF1E770B540F67A
:105A80003046C4F2026656F8301C044621F08050BD
:105A900046F8300CFCF730F8054600BF56F8300CDD
:105AA000800007D5FCF728F8401B022884BF03209C
:105AB00070BDF3E7306840F60371884394E80E1038
:105AC0006FF0FF0505EB0222084310433060706958
:105AD0000021C8F2800100EA010E591E4FF47E42F7
